{
  "contractName": "PrizedLinkedContract",
  "abi": [
    {
      "constant": true,
      "inputs": [
        {
          "name": "",
          "type": "address"
        }
      ],
      "name": "entryMap",
      "outputs": [
        {
          "name": "",
          "type": "uint256"
        }
      ],
      "payable": false,
      "stateMutability": "view",
      "type": "function"
    },
    {
      "constant": true,
      "inputs": [],
      "name": "pool",
      "outputs": [
        {
          "name": "",
          "type": "uint256"
        }
      ],
      "payable": false,
      "stateMutability": "view",
      "type": "function"
    },
    {
      "constant": true,
      "inputs": [],
      "name": "MIN_TICKET_PRICE",
      "outputs": [
        {
          "name": "",
          "type": "uint256"
        }
      ],
      "payable": false,
      "stateMutability": "view",
      "type": "function"
    },
    {
      "constant": true,
      "inputs": [
        {
          "name": "",
          "type": "address"
        }
      ],
      "name": "savings",
      "outputs": [
        {
          "name": "",
          "type": "uint256"
        }
      ],
      "payable": false,
      "stateMutability": "view",
      "type": "function"
    },
    {
      "constant": true,
      "inputs": [],
      "name": "winningAddress",
      "outputs": [
        {
          "name": "",
          "type": "address"
        }
      ],
      "payable": false,
      "stateMutability": "view",
      "type": "function"
    },
    {
      "constant": true,
      "inputs": [],
      "name": "isOpen",
      "outputs": [
        {
          "name": "",
          "type": "bool"
        }
      ],
      "payable": false,
      "stateMutability": "view",
      "type": "function"
    },
    {
      "constant": true,
      "inputs": [],
      "name": "owner",
      "outputs": [
        {
          "name": "",
          "type": "address"
        }
      ],
      "payable": false,
      "stateMutability": "view",
      "type": "function"
    },
    {
      "constant": true,
      "inputs": [],
      "name": "creationTime",
      "outputs": [
        {
          "name": "",
          "type": "uint256"
        }
      ],
      "payable": false,
      "stateMutability": "view",
      "type": "function"
    },
    {
      "constant": true,
      "inputs": [],
      "name": "interestGenerated",
      "outputs": [
        {
          "name": "",
          "type": "uint256"
        }
      ],
      "payable": false,
      "stateMutability": "view",
      "type": "function"
    },
    {
      "constant": true,
      "inputs": [
        {
          "name": "",
          "type": "uint256"
        }
      ],
      "name": "entrants",
      "outputs": [
        {
          "name": "",
          "type": "address"
        }
      ],
      "payable": false,
      "stateMutability": "view",
      "type": "function"
    },
    {
      "inputs": [],
      "payable": false,
      "stateMutability": "nonpayable",
      "type": "constructor"
    },
    {
      "anonymous": false,
      "inputs": [],
      "name": "poolCreated",
      "type": "event"
    },
    {
      "anonymous": false,
      "inputs": [
        {
          "indexed": true,
          "name": "saver",
          "type": "address"
        },
        {
          "indexed": false,
          "name": "deposit",
          "type": "uint256"
        },
        {
          "indexed": false,
          "name": "total",
          "type": "uint256"
        }
      ],
      "name": "addedEntry",
      "type": "event"
    },
    {
      "anonymous": false,
      "inputs": [
        {
          "indexed": true,
          "name": "saver",
          "type": "address"
        },
        {
          "indexed": false,
          "name": "savings",
          "type": "uint256"
        }
      ],
      "name": "withdraw",
      "type": "event"
    },
    {
      "anonymous": false,
      "inputs": [],
      "name": "closedPool",
      "type": "event"
    },
    {
      "anonymous": false,
      "inputs": [],
      "name": "chosenWinner",
      "type": "event"
    },
    {
      "anonymous": false,
      "inputs": [],
      "name": "endedPool",
      "type": "event"
    },
    {
      "constant": false,
      "inputs": [],
      "name": "addToPool",
      "outputs": [],
      "payable": true,
      "stateMutability": "payable",
      "type": "function"
    },
    {
      "constant": true,
      "inputs": [],
      "name": "viewDeposit",
      "outputs": [
        {
          "name": "",
          "type": "uint256"
        }
      ],
      "payable": false,
      "stateMutability": "view",
      "type": "function"
    },
    {
      "constant": false,
      "inputs": [],
      "name": "closePool",
      "outputs": [],
      "payable": false,
      "stateMutability": "nonpayable",
      "type": "function"
    },
    {
      "constant": false,
      "inputs": [],
      "name": "chooseWinner",
      "outputs": [
        {
          "name": "",
          "type": "address"
        }
      ],
      "payable": false,
      "stateMutability": "nonpayable",
      "type": "function"
    },
    {
      "constant": false,
      "inputs": [],
      "name": "endPool",
      "outputs": [],
      "payable": false,
      "stateMutability": "nonpayable",
      "type": "function"
    }
  ],
  "bytecode": "0x6080604052662386f26fc1000060025534801561001b57600080fd5b50336000806101000a81548173ffffffffffffffffffffffffffffffffffffffff021916908373ffffffffffffffffffffffffffffffffffffffff1602179055506001600660006101000a81548160ff02191690831515021790555042600781905550610e128061008d6000396000f3fe6080604052600436106100e85760003560e01c806347535d7b1161008a578063cd38aa8711610059578063cd38aa871461034d578063d8270dce146103a4578063e1dfd7fa146103cf578063e7b4e5ab146103fa576100e8565b806347535d7b146102a657806366805de5146102d55780638da5cb5b146102ec578063c07401f014610343576100e8565b80631f7cdd5f116100c65780631f7cdd5f146101a85780632832b7571461020d5780632d42cf7d146102385780633ea8b3bc1461024f576100e8565b80630ccab389146100ed57806316f0115b146101525780631af2a0651461017d575b600080fd5b3480156100f957600080fd5b5061013c6004803603602081101561011057600080fd5b81019080803573ffffffffffffffffffffffffffffffffffffffff169060200190929190505050610475565b6040518082815260200191505060405180910390f35b34801561015e57600080fd5b5061016761048d565b6040518082815260200191505060405180910390f35b34801561018957600080fd5b50610192610493565b6040518082815260200191505060405180910390f35b3480156101b457600080fd5b506101f7600480360360208110156101cb57600080fd5b81019080803573ffffffffffffffffffffffffffffffffffffffff169060200190929190505050610499565b6040518082815260200191505060405180910390f35b34801561021957600080fd5b506102226104b1565b6040518082815260200191505060405180910390f35b34801561024457600080fd5b5061024d6104f8565b005b34801561025b57600080fd5b506102646106ae565b604051808273ffffffffffffffffffffffffffffffffffffffff1673ffffffffffffffffffffffffffffffffffffffff16815260200191505060405180910390f35b3480156102b257600080fd5b506102bb6106d4565b604051808215151515815260200191505060405180910390f35b3480156102e157600080fd5b506102ea6106e7565b005b3480156102f857600080fd5b50610301610780565b604051808273ffffffffffffffffffffffffffffffffffffffff1673ffffffffffffffffffffffffffffffffffffffff16815260200191505060405180910390f35b61034b6107a5565b005b34801561035957600080fd5b50610362610a5f565b604051808273ffffffffffffffffffffffffffffffffffffffff1673ffffffffffffffffffffffffffffffffffffffff16815260200191505060405180910390f35b3480156103b057600080fd5b506103b9610b72565b6040518082815260200191505060405180910390f35b3480156103db57600080fd5b506103e4610b78565b6040518082815260200191505060405180910390f35b34801561040657600080fd5b506104336004803603602081101561041d57600080fd5b8101908080359060200190929190505050610b7e565b604051808273ffffffffffffffffffffffffffffffffffffffff1673ffffffffffffffffffffffffffffffffffffffff16815260200191505060405180910390f35b60056020528060005260406000206000915090505481565b60015481565b60025481565b60046020528060005260406000206000915090505481565b6000600460003373ffffffffffffffffffffffffffffffffffffffff1673ffffffffffffffffffffffffffffffffffffffff16815260200190815260200160002054905090565b600073ffffffffffffffffffffffffffffffffffffffff16600960009054906101000a900473ffffffffffffffffffffffffffffffffffffffff1673ffffffffffffffffffffffffffffffffffffffff1614156105a0576040517f08c379a000000000000000000000000000000000000000000000000000000000815260040180806020018281038252602d815260200180610dba602d913960400191505060405180910390fd5b6000600660006101000a81548160ff021916908315150217905550600960009054906101000a900473ffffffffffffffffffffffffffffffffffffffff1673ffffffffffffffffffffffffffffffffffffffff166108fc6106806106106014600154610bba90919063ffffffff16565b60046000600960009054906101000a900473ffffffffffffffffffffffffffffffffffffffff1673ffffffffffffffffffffffffffffffffffffffff1673ffffffffffffffffffffffffffffffffffffffff16815260200190815260200160002054610c4990919063ffffffff16565b9081150290604051600060405180830381858888f193505050501580156106ab573d6000803e3d6000fd5b50565b600960009054906101000a900473ffffffffffffffffffffffffffffffffffffffff1681565b600660009054906101000a900460ff1681565b62127500600754420311610763576040517f08c379a000000000000000000000000000000000000000000000000000000000815260040180806020018281038252601a8152602001807f54776f207765656b73206d75737420686176652070617373656400000000000081525060200191505060405180910390fd5b6000600660006101000a81548160ff021916908315150217905550565b6000809054906101000a900473ffffffffffffffffffffffffffffffffffffffff1681565b60011515600660009054906101000a900460ff1615151461082e576040517f08c379a00000000000000000000000000000000000000000000000000000000081526004018080602001828103825260118152602001807f506f6f6c206d757374206265206f70656e00000000000000000000000000000081525060200191505060405180910390fd5b600254341015610889576040517f08c379a0000000000000000000000000000000000000000000000000000000008152600401808060200182810382526027815260200180610d936027913960400191505060405180910390fd5b6000600460003373ffffffffffffffffffffffffffffffffffffffff1673ffffffffffffffffffffffffffffffffffffffff1681526020019081526020016000205414156109385760033390806001815401808255809150509060018203906000526020600020016000909192909190916101000a81548173ffffffffffffffffffffffffffffffffffffffff021916908373ffffffffffffffffffffffffffffffffffffffff160217905550505b346001540160018190555034600460003373ffffffffffffffffffffffffffffffffffffffff1673ffffffffffffffffffffffffffffffffffffffff1681526020019081526020016000205401600460003373ffffffffffffffffffffffffffffffffffffffff1673ffffffffffffffffffffffffffffffffffffffff168152602001908152602001600020819055503373ffffffffffffffffffffffffffffffffffffffff167f8ccfb5d9a9c748312474f472a40783aa334f34c33360c1bfa830836565a47a0b34600460003373ffffffffffffffffffffffffffffffffffffffff1673ffffffffffffffffffffffffffffffffffffffff16815260200190815260200160002054604051808381526020018281526020019250505060405180910390a2565b6000801515600660009054906101000a900460ff16151514610acc576040517f08c379a000000000000000000000000000000000000000000000000000000000815260040180806020018281038252602b815260200180610d68602b913960400191505060405180910390fd5b6000610ad6610cd1565b90506000610af260038054905083610cdd90919063ffffffff16565b905060038181548110610b0157fe5b9060005260206000200160009054906101000a900473ffffffffffffffffffffffffffffffffffffffff16600960006101000a81548173ffffffffffffffffffffffffffffffffffffffff021916908373ffffffffffffffffffffffffffffffffffffffff16021790559250505090565b60075481565b60085481565b60038181548110610b8b57fe5b906000526020600020016000915054906101000a900473ffffffffffffffffffffffffffffffffffffffff1681565b6000808211610c31576040517f08c379a000000000000000000000000000000000000000000000000000000000815260040180806020018281038252601a8152602001807f536166654d6174683a206469766973696f6e206279207a65726f00000000000081525060200191505060405180910390fd5b6000828481610c3c57fe5b0490508091505092915050565b600080828401905083811015610cc7576040517f08c379a000000000000000000000000000000000000000000000000000000000815260040180806020018281038252601b8152602001807f536166654d6174683a206164646974696f6e206f766572666c6f77000000000081525060200191505060405180910390fd5b8091505092915050565b6000434060001c905090565b600080821415610d55576040517f08c379a00000000000000000000000000000000000000000000000000000000081526004018080602001828103825260188152602001807f536166654d6174683a206d6f64756c6f206279207a65726f000000000000000081525060200191505060405180910390fd5b818381610d5e57fe5b0690509291505056fe506f6f6c206d75737420626520636c6f736564206265666f72652073656c656374696e672077696e6e65724d757374207375626d6974206174206c6561737420746865206d696e696d756d20616d6f756e7457696e6e65722073686f756c64206265206465636c61726564206265666f726520636c6f73696e6720706f6f6ca165627a7a72305820e246bd7e77a86d348716f740bdb9a1897d281332489d82f994c42469528c96470029",
  "source": "pragma solidity ^0.5.0;\n\nimport \"./SafeMath.sol\";\n\n/**\n * @title The PrizedLinkedContract.sol contract for DOXA\n * @author Brennan Fife\n * @notice ...\n * @dev ...\n */\ncontract PrizedLinkedContract {\n    using SafeMath for uint;\n    address payable public owner;\n    uint public pool; // pool size, WHICH defaults to 0\n    uint public MIN_TICKET_PRICE = 10 finney; // MUST save at least 0.01 ether\n    address payable[] public entrants;\n    mapping (address => uint) public savings; // amount of each savings\n    mapping (address => uint) public entryMap; // list the map of entrants.\n    bool public isOpen;\n    uint public creationTime; // current blocktime stamp\n    uint public interestGenerated;\n    address payable public winningAddress;\n\n   /**\n    * Emitted when a new pool is created. Should it contain the pool address?\n    * param nameOfParam(s)\n    */\n    event poolCreated();\n\n   /**\n    * Emitted when a saver is added to the pool\n    * param nameOfParam(s)\n    */\n    event addedEntry(address indexed saver, uint deposit, uint total);\n\n   /**\n    * Emitted when a saver withdraws\n    * param nameOfParam(s)\n    */\n    event withdraw(address indexed saver, uint savings);\n\n   /**\n    * Emitted when closePool is called\n    * param nameOfParam(s)\n    */\n    event closedPool();\n\n   /**\n    * Emitted when closePool is called\n    * param nameOfParam(s)\n    */\n    event chosenWinner();\n\n   /**\n    * Emitted when endPool is called\n    * param nameOfParam(s)\n    */\n    event endedPool();\n\n    modifier isOwner {\n        require(owner == msg.sender, \"Caller is not owner\");\n        _;\n    }\n\n    modifier poolOpen {\n        require(isOpen == true, \"Pool must be open\");\n        _;\n    }\n\n    modifier minAmount {\n       require(msg.value >= MIN_TICKET_PRICE, \"Must submit at least the minimum amount\");\n       _;\n    }\n\n    modifier requiredTimePassed {\n        require((block.timestamp - creationTime) > 4 weeks, \"One month must have passed\"); //4 weeks to simulate a month has passed\n        _;\n    }\n\n    constructor() public {\n        owner = msg.sender;\n        isOpen = true;\n        creationTime = block.timestamp;\n    }\n\n    // When a new saver joins the pool, saver can add to deposit during isOpen\n    function addToPool() public payable poolOpen() minAmount {\n        if (savings[msg.sender] == 0) entrants.push(msg.sender); //Only add to potential winners if current balance 0\n        pool = pool + msg.value;\n        savings[msg.sender] = savings[msg.sender] + msg.value;\n        emit addedEntry(msg.sender, msg.value, savings[msg.sender]);\n    }\n\n    function viewDeposit() public view returns(uint) {\n        return(savings[msg.sender]);\n    }\n\n    function selectRandom() internal view returns (uint256) {\n        return uint256(blockhash(block.number));\n    }\n\n    function closePool() public {\n        require((block.timestamp - creationTime) > 2 weeks, \"Two weeks must have passed\");\n        isOpen = false;\n        // emit closedPool();\n    }\n\n    function chooseWinner() public returns (address) {\n        require(isOpen == false, \"Pool must be closed before selecting winner\");\n        uint randomNumber = selectRandom();\n        uint entrantsRandomIndex = randomNumber.mod(entrants.length);\n        return winningAddress = entrants[entrantsRandomIndex];\n        // emit chosenWinner();\n    }\n\n    function endPool() public { // function endPool public requiredTimePassed\n        require(winningAddress != address(0), \"Winner should be declared before closing pool\"); // Require chooseWinner has been called.\n        isOpen = false;\n        winningAddress.transfer(savings[winningAddress].add(pool.div(20))); // 20 represents a 5% interest rate (hard coded)\n        // emit endedPool();\n    }\n}",
  "sourcePath": "/Users/brenfife/Desktop/the-doxa-project/contracts/PrizedLinkedContract.sol",
  "compiler": {
    "name": "solc",
    "version": "0.5.8+commit.23d335f2.Emscripten.clang"
  },
  "schemaVersion": "3.0.11",
  "updatedAt": "2019-07-24T15:37:07.242Z",
  "devdoc": {
    "author": "Brennan Fife",
    "details": "...",
    "methods": {},
    "title": "The PrizedLinkedContract.sol contract for DOXA"
  },
  "userdoc": {
    "methods": {},
    "notice": "..."
  }
}