{
  "contractName": "PrizedLinkedContract",
  "abi": [
    {
      "constant": true,
      "inputs": [],
      "name": "owner",
      "outputs": [
        {
          "name": "",
          "type": "address"
        }
      ],
      "payable": false,
      "stateMutability": "view",
      "type": "function"
    },
    {
      "inputs": [],
      "payable": false,
      "stateMutability": "nonpayable",
      "type": "constructor"
    }
  ],
  "bytecode": "0x608060405234801561001057600080fd5b50336000806101000a81548173ffffffffffffffffffffffffffffffffffffffff021916908373ffffffffffffffffffffffffffffffffffffffff16021790555060c68061005f6000396000f3fe6080604052348015600f57600080fd5b506004361060285760003560e01c80638da5cb5b14602d575b600080fd5b60336075565b604051808273ffffffffffffffffffffffffffffffffffffffff1673ffffffffffffffffffffffffffffffffffffffff16815260200191505060405180910390f35b6000809054906101000a900473ffffffffffffffffffffffffffffffffffffffff168156fea165627a7a723058207bb3455d94bf38419a1eb9035fa99a3f7979edbc4392d9df199ff8b5031ad1d00029",
  "source": "pragma solidity ^0.5.0;\n\n// import 'https://github.com/OpenZeppelin/openzeppelin-solidity/blob/master/contracts/math/SafeMath.sol';\n// Can also just create a safe math contract and import it\n// May use rhombus lighthouse here too\n\n\n\n\ncontract PrizedLinkedContract {\n    // VARIABLES\n    address public owner;\n\n    // CONSTRUCTOR\n    constructor() public {\n        owner = msg.sender;\n    }\n}\n\n/* contract PrizedLinkedContract {\n    // VARIABLES\n    address public owner;\n    // address[] public entrants;\n    // creationTime = now;\n\n    mapping (address => uint) savings; // amount of each savings\n    mapping (address => uint) entryMap; // list the number of entrants\n\n    // pool size and minimum\n    uint pool = 0;\n    uint min = 10 finney; //0.01 ether\n\n    constructor() public {\n        owner = msg.sender;\n        //creationTime = now;\n    }\n\n    //States of Contract:\n    //PoolOpen: Accepting\n    //Saving: and Earning\n    //PayOut: Withdraw\n\n    enum States {\n        PoolOpen,  //0\n        Saving,    //1\n        PayOut     //2\n    }\n\n    // EVENTS\n    // Event emitted when a saver dives into the pool\n    event splashDown(address indexed saver, uint deposit, uint total);\n\n    // Event emitted when a saver withdraws\n    event takeHome(address indexed saver, uint savings);\n\n    event Saving(States state);\n\n\n    //When a new saver joins the pool\n    //Saver can add to deposit during PoolOpen\n    function addToPool() public payable atState(States.PoolOpen) {\n\n        require(msg.value >= min, \"Must submit at least the minimum amount\");\n        addEntrant(msg.sender);\n        pool = pool + msg.value;\n        savings[msg.sender] = savings[msg.sender] + msg.value;\n        emit splashDown(msg.sender, msg.value, savings[msg.sender]);\n    }\n\n    //Add entrant to pool\n    function addEntrant (address entrant) private {\n        if (savings[entrant] == 0) {\n          //Only add to potential winners if current balance 0\n          entrants.push(entrant);\n          entryMap[entrant] = entrants.length - 1;\n        }\n        //Else: Already an active key\n    }\n\n} */",
  "sourcePath": "/Users/brenfife/Desktop/the-doxa-project/doxa-react-box/contracts/PrizedLinkedContract.sol",
  "compiler": {
    "name": "solc",
    "version": "0.5.8+commit.23d335f2.Emscripten.clang"
  },
  "schemaVersion": "3.0.11",
  "updatedAt": "2019-07-09T17:49:50.490Z",
  "devdoc": {
    "methods": {}
  },
  "userdoc": {
    "methods": {}
  }
}