{
  "contractName": "PrizedLinkedContract",
  "abi": [
    {
      "constant": true,
      "inputs": [],
      "name": "pool",
      "outputs": [
        {
          "name": "",
          "type": "uint256"
        }
      ],
      "payable": false,
      "stateMutability": "view",
      "type": "function"
    },
    {
      "constant": true,
      "inputs": [
        {
          "name": "",
          "type": "address"
        }
      ],
      "name": "savings",
      "outputs": [
        {
          "name": "",
          "type": "uint256"
        }
      ],
      "payable": false,
      "stateMutability": "view",
      "type": "function"
    },
    {
      "constant": true,
      "inputs": [],
      "name": "MINIMUM_AMOUNT",
      "outputs": [
        {
          "name": "",
          "type": "uint256"
        }
      ],
      "payable": false,
      "stateMutability": "view",
      "type": "function"
    },
    {
      "constant": true,
      "inputs": [],
      "name": "winningAddress",
      "outputs": [
        {
          "name": "",
          "type": "address"
        }
      ],
      "payable": false,
      "stateMutability": "view",
      "type": "function"
    },
    {
      "constant": true,
      "inputs": [],
      "name": "isOpen",
      "outputs": [
        {
          "name": "",
          "type": "bool"
        }
      ],
      "payable": false,
      "stateMutability": "view",
      "type": "function"
    },
    {
      "constant": true,
      "inputs": [],
      "name": "contractPaused",
      "outputs": [
        {
          "name": "",
          "type": "bool"
        }
      ],
      "payable": false,
      "stateMutability": "view",
      "type": "function"
    },
    {
      "constant": true,
      "inputs": [],
      "name": "owner",
      "outputs": [
        {
          "name": "",
          "type": "address"
        }
      ],
      "payable": false,
      "stateMutability": "view",
      "type": "function"
    },
    {
      "constant": true,
      "inputs": [],
      "name": "creationTime",
      "outputs": [
        {
          "name": "",
          "type": "uint256"
        }
      ],
      "payable": false,
      "stateMutability": "view",
      "type": "function"
    },
    {
      "constant": true,
      "inputs": [
        {
          "name": "",
          "type": "uint256"
        }
      ],
      "name": "entrants",
      "outputs": [
        {
          "name": "",
          "type": "address"
        }
      ],
      "payable": false,
      "stateMutability": "view",
      "type": "function"
    },
    {
      "inputs": [],
      "payable": false,
      "stateMutability": "nonpayable",
      "type": "constructor"
    },
    {
      "anonymous": false,
      "inputs": [
        {
          "indexed": false,
          "name": "creator",
          "type": "address"
        }
      ],
      "name": "PoolCreated",
      "type": "event"
    },
    {
      "anonymous": false,
      "inputs": [
        {
          "indexed": true,
          "name": "saver",
          "type": "address"
        },
        {
          "indexed": false,
          "name": "deposit",
          "type": "uint256"
        },
        {
          "indexed": false,
          "name": "total",
          "type": "uint256"
        },
        {
          "indexed": false,
          "name": "poolSize",
          "type": "uint256"
        }
      ],
      "name": "AddedEntry",
      "type": "event"
    },
    {
      "anonymous": false,
      "inputs": [
        {
          "indexed": true,
          "name": "saver",
          "type": "address"
        },
        {
          "indexed": false,
          "name": "savings",
          "type": "uint256"
        }
      ],
      "name": "Withdrawn",
      "type": "event"
    },
    {
      "anonymous": false,
      "inputs": [
        {
          "indexed": false,
          "name": "timeLocked",
          "type": "uint256"
        },
        {
          "indexed": false,
          "name": "locker",
          "type": "address"
        }
      ],
      "name": "PoolLocked",
      "type": "event"
    },
    {
      "anonymous": false,
      "inputs": [
        {
          "indexed": true,
          "name": "winner",
          "type": "address"
        }
      ],
      "name": "ChosenWinner",
      "type": "event"
    },
    {
      "anonymous": false,
      "inputs": [
        {
          "indexed": false,
          "name": "winnings",
          "type": "uint256"
        }
      ],
      "name": "PoolClosed",
      "type": "event"
    },
    {
      "constant": false,
      "inputs": [],
      "name": "addToPool",
      "outputs": [],
      "payable": true,
      "stateMutability": "payable",
      "type": "function"
    },
    {
      "constant": true,
      "inputs": [],
      "name": "viewDeposit",
      "outputs": [
        {
          "name": "",
          "type": "uint256"
        }
      ],
      "payable": false,
      "stateMutability": "view",
      "type": "function"
    },
    {
      "constant": false,
      "inputs": [],
      "name": "withdrawAll",
      "outputs": [],
      "payable": false,
      "stateMutability": "nonpayable",
      "type": "function"
    },
    {
      "constant": false,
      "inputs": [],
      "name": "lockPool",
      "outputs": [],
      "payable": false,
      "stateMutability": "nonpayable",
      "type": "function"
    },
    {
      "constant": false,
      "inputs": [],
      "name": "chooseWinner",
      "outputs": [
        {
          "name": "",
          "type": "address"
        }
      ],
      "payable": false,
      "stateMutability": "nonpayable",
      "type": "function"
    },
    {
      "constant": false,
      "inputs": [],
      "name": "closePool",
      "outputs": [],
      "payable": false,
      "stateMutability": "nonpayable",
      "type": "function"
    },
    {
      "constant": false,
      "inputs": [],
      "name": "togglePause",
      "outputs": [],
      "payable": false,
      "stateMutability": "nonpayable",
      "type": "function"
    }
  ],
  "bytecode": "0x6080604052662386f26fc100006002556000600760146101000a81548160ff02191690831515021790555034801561003657600080fd5b50336000806101000a81548173ffffffffffffffffffffffffffffffffffffffff021916908373ffffffffffffffffffffffffffffffffffffffff1602179055506001600560006101000a81548160ff021916908315150217905550426006819055507f83a48fbcfc991335314e74d0496aab6a1987e992ddc85dddbcc4d6dd6ef2e9fc6000809054906101000a900473ffffffffffffffffffffffffffffffffffffffff16604051808273ffffffffffffffffffffffffffffffffffffffff1673ffffffffffffffffffffffffffffffffffffffff16815260200191505060405180910390a16114e98061012c6000396000f3fe6080604052600436106100f35760003560e01c8063853828b61161008a578063c4ae316811610059578063c4ae316814610339578063cd38aa8714610350578063d8270dce146103a7578063e7b4e5ab146103d2576100f3565b8063853828b6146102925780638a67456a146102a95780638da5cb5b146102d8578063c07401f01461032f576100f3565b80633ea8b3bc116100c65780633ea8b3bc146101de5780634026478e1461023557806347535d7b1461024c57806366805de51461027b576100f3565b806316f0115b146100f85780631f7cdd5f14610123578063257d9bb8146101885780632832b757146101b3575b600080fd5b34801561010457600080fd5b5061010d61044d565b6040518082815260200191505060405180910390f35b34801561012f57600080fd5b506101726004803603602081101561014657600080fd5b81019080803573ffffffffffffffffffffffffffffffffffffffff169060200190929190505050610453565b6040518082815260200191505060405180910390f35b34801561019457600080fd5b5061019d61046b565b6040518082815260200191505060405180910390f35b3480156101bf57600080fd5b506101c8610471565b6040518082815260200191505060405180910390f35b3480156101ea57600080fd5b506101f36104b8565b604051808273ffffffffffffffffffffffffffffffffffffffff1673ffffffffffffffffffffffffffffffffffffffff16815260200191505060405180910390f35b34801561024157600080fd5b5061024a6104de565b005b34801561025857600080fd5b506102616105ef565b604051808215151515815260200191505060405180910390f35b34801561028757600080fd5b50610290610602565b005b34801561029e57600080fd5b506102a761088d565b005b3480156102b557600080fd5b506102be610b25565b604051808215151515815260200191505060405180910390f35b3480156102e457600080fd5b506102ed610b38565b604051808273ffffffffffffffffffffffffffffffffffffffff1673ffffffffffffffffffffffffffffffffffffffff16815260200191505060405180910390f35b610337610b5d565b005b34801561034557600080fd5b5061034e610eaa565b005b34801561035c57600080fd5b50610365610f98565b604051808273ffffffffffffffffffffffffffffffffffffffff1673ffffffffffffffffffffffffffffffffffffffff16815260200191505060405180910390f35b3480156103b357600080fd5b506103bc61121c565b6040518082815260200191505060405180910390f35b3480156103de57600080fd5b5061040b600480360360208110156103f557600080fd5b8101908080359060200190929190505050611222565b604051808273ffffffffffffffffffffffffffffffffffffffff1673ffffffffffffffffffffffffffffffffffffffff16815260200191505060405180910390f35b60015481565b60046020528060005260406000206000915090505481565b60025481565b6000600460003373ffffffffffffffffffffffffffffffffffffffff1673ffffffffffffffffffffffffffffffffffffffff16815260200190815260200160002054905090565b600760009054906101000a900473ffffffffffffffffffffffffffffffffffffffff1681565b60001515600760149054906101000a900460ff16151514610567576040517f08c379a000000000000000000000000000000000000000000000000000000000815260040180806020018281038252601d8152602001807f4369726375697420627265616b6572206d7573742062652066616c736500000081525060200191505060405180910390fd5b6000600560006101000a81548160ff0219169083151502179055507f655d9de862f54871fe8509d45315a1a337dd39215228a025dca894d04c9013924233604051808381526020018273ffffffffffffffffffffffffffffffffffffffff1673ffffffffffffffffffffffffffffffffffffffff1681526020019250505060405180910390a1565b600560009054906101000a900460ff1681565b60001515600760149054906101000a900460ff1615151461068b576040517f08c379a000000000000000000000000000000000000000000000000000000000815260040180806020018281038252601d8152602001807f4369726375697420627265616b6572206d7573742062652066616c736500000081525060200191505060405180910390fd5b600073ffffffffffffffffffffffffffffffffffffffff16600760009054906101000a900473ffffffffffffffffffffffffffffffffffffffff1673ffffffffffffffffffffffffffffffffffffffff161415610733576040517f08c379a000000000000000000000000000000000000000000000000000000000815260040180806020018281038252602d815260200180611491602d913960400191505060405180910390fd5b6000600560006101000a81548160ff021916908315150217905550600760009054906101000a900473ffffffffffffffffffffffffffffffffffffffff1673ffffffffffffffffffffffffffffffffffffffff166108fc6108136107a3601460015461125e90919063ffffffff16565b60046000600760009054906101000a900473ffffffffffffffffffffffffffffffffffffffff1673ffffffffffffffffffffffffffffffffffffffff1673ffffffffffffffffffffffffffffffffffffffff168152602001908152602001600020546112ed90919063ffffffff16565b9081150290604051600060405180830381858888f1935050505015801561083e573d6000803e3d6000fd5b507f925a19753e677c9dc36a80e0fc824ca0c5b1afde494872b43daccab9ffeaffd4610876601460015461125e90919063ffffffff16565b6040518082815260200191505060405180910390a1565b6000600460003373ffffffffffffffffffffffffffffffffffffffff1673ffffffffffffffffffffffffffffffffffffffff1681526020019081526020016000205411610942576040517f08c379a000000000000000000000000000000000000000000000000000000000815260040180806020018281038252601f8152602001807f456e7472616e7420686173206e6f7468696e6720746f2077697468647261770081525060200191505060405180910390fd5b60011515600560009054906101000a900460ff161515146109cb576040517f08c379a000000000000000000000000000000000000000000000000000000000815260040180806020018281038252600d8152602001807f506f6f6c206e6f74206f70656e0000000000000000000000000000000000000081525060200191505060405180910390fd5b3373ffffffffffffffffffffffffffffffffffffffff166108fc600460003373ffffffffffffffffffffffffffffffffffffffff1673ffffffffffffffffffffffffffffffffffffffff168152602001908152602001600020549081150290604051600060405180830381858888f19350505050158015610a50573d6000803e3d6000fd5b506000600460003373ffffffffffffffffffffffffffffffffffffffff1673ffffffffffffffffffffffffffffffffffffffff168152602001908152602001600020819055503373ffffffffffffffffffffffffffffffffffffffff167f7084f5476618d8e60b11ef0d7d3f06914655adb8793e28ff7f018d4c76d505d5600460003373ffffffffffffffffffffffffffffffffffffffff1673ffffffffffffffffffffffffffffffffffffffff168152602001908152602001600020546040518082815260200191505060405180910390a2565b600760149054906101000a900460ff1681565b6000809054906101000a900473ffffffffffffffffffffffffffffffffffffffff1681565b60011515600560009054906101000a900460ff16151514610be6576040517f08c379a00000000000000000000000000000000000000000000000000000000081526004018080602001828103825260118152602001807f506f6f6c206d757374206265206f70656e00000000000000000000000000000081525060200191505060405180910390fd5b600254341015610c41576040517f08c379a000000000000000000000000000000000000000000000000000000000815260040180806020018281038252602781526020018061146a6027913960400191505060405180910390fd5b60001515600760149054906101000a900460ff16151514610cca576040517f08c379a000000000000000000000000000000000000000000000000000000000815260040180806020018281038252601d8152602001807f4369726375697420627265616b6572206d7573742062652066616c736500000081525060200191505060405180910390fd5b6000600460003373ffffffffffffffffffffffffffffffffffffffff1673ffffffffffffffffffffffffffffffffffffffff168152602001908152602001600020541415610d795760033390806001815401808255809150509060018203906000526020600020016000909192909190916101000a81548173ffffffffffffffffffffffffffffffffffffffff021916908373ffffffffffffffffffffffffffffffffffffffff160217905550505b346001540160018190555034600460003373ffffffffffffffffffffffffffffffffffffffff1673ffffffffffffffffffffffffffffffffffffffff1681526020019081526020016000205401600460003373ffffffffffffffffffffffffffffffffffffffff1673ffffffffffffffffffffffffffffffffffffffff168152602001908152602001600020819055503373ffffffffffffffffffffffffffffffffffffffff167ffff7bd3044d987c60ec6577fd54b52dd9a261402a8125a103efeaa363a45958634600460003373ffffffffffffffffffffffffffffffffffffffff1673ffffffffffffffffffffffffffffffffffffffff1681526020019081526020016000205460015460405180848152602001838152602001828152602001935050505060405180910390a2565b3373ffffffffffffffffffffffffffffffffffffffff166000809054906101000a900473ffffffffffffffffffffffffffffffffffffffff1673ffffffffffffffffffffffffffffffffffffffff1614610f6c576040517f08c379a00000000000000000000000000000000000000000000000000000000081526004018080602001828103825260138152602001807f43616c6c6572206973206e6f74206f776e65720000000000000000000000000081525060200191505060405180910390fd5b600760149054906101000a900460ff1615600760146101000a81548160ff021916908315150217905550565b6000801515600760149054906101000a900460ff16151514611022576040517f08c379a000000000000000000000000000000000000000000000000000000000815260040180806020018281038252601d8152602001807f4369726375697420627265616b6572206d7573742062652066616c736500000081525060200191505060405180910390fd5b60001515600560009054906101000a900460ff1615151461108e576040517f08c379a000000000000000000000000000000000000000000000000000000000815260040180806020018281038252602b81526020018061143f602b913960400191505060405180910390fd5b600260038054905010156110ed576040517f08c379a000000000000000000000000000000000000000000000000000000000815260040180806020018281038252603381526020018061140c6033913960400191505060405180910390fd5b60006110f7611375565b905060006111136003805490508361138190919063ffffffff16565b90506003818154811061112257fe5b9060005260206000200160009054906101000a900473ffffffffffffffffffffffffffffffffffffffff16600760006101000a81548173ffffffffffffffffffffffffffffffffffffffff021916908373ffffffffffffffffffffffffffffffffffffffff160217905550600760009054906101000a900473ffffffffffffffffffffffffffffffffffffffff1673ffffffffffffffffffffffffffffffffffffffff167fe8380c67d0cce571b3e5e2e9ec8a4b9a7663003f5f911a8ef29d60e0db8045be60405160405180910390a2600760009054906101000a900473ffffffffffffffffffffffffffffffffffffffff169250505090565b60065481565b6003818154811061122f57fe5b906000526020600020016000915054906101000a900473ffffffffffffffffffffffffffffffffffffffff1681565b60008082116112d5576040517f08c379a000000000000000000000000000000000000000000000000000000000815260040180806020018281038252601a8152602001807f536166654d6174683a206469766973696f6e206279207a65726f00000000000081525060200191505060405180910390fd5b60008284816112e057fe5b0490508091505092915050565b60008082840190508381101561136b576040517f08c379a000000000000000000000000000000000000000000000000000000000815260040180806020018281038252601b8152602001807f536166654d6174683a206164646974696f6e206f766572666c6f77000000000081525060200191505060405180910390fd5b8091505092915050565b6000434060001c905090565b6000808214156113f9576040517f08c379a00000000000000000000000000000000000000000000000000000000081526004018080602001828103825260188152602001807f536166654d6174683a206d6f64756c6f206279207a65726f000000000000000081525060200191505060405180910390fd5b81838161140257fe5b0690509291505056fe5468657265206d7573742062652032206f72206d6f726520706c617965727320696e207468652063757272656e7420706f6f6c506f6f6c206d757374206265206c6f636b6564206265666f72652073656c656374696e672077696e6e65724d757374207375626d6974206174206c6561737420746865206d696e696d756d20616d6f756e7457696e6e65722073686f756c64206265206465636c61726564206265666f726520636c6f73696e6720706f6f6ca165627a7a723058202758d22e4cd4d48a3fc92a81e54019abe81a090f57b61036b5af158889c72ffc0029",
  "source": "pragma solidity 0.5.8;\n\nimport \"./SafeMath.sol\";\n\n/**\n * @title The PrizedLinkedContract.sol contract for DOXA\n * @author Brennan Fife\n * @notice PrizedLinkedContract is the main contract for our system.\n * Users will be able to save money every month, with each month raffling off the interest\n * generated from the collective pool of savers.\n * @dev This is the barebones for a prize-linked lottery system.\n * Eventually, this contract would look to add additional features, including:\n * Adding compadability with Coinbase Wallet, using Compound Finance for lending + Dai,\n * and Rhombus Network to provide us with uniformly random numbers.\n */\ncontract PrizedLinkedContract {\n    using SafeMath for uint;\n\n    // GLOBAL VARIABLES\n    address payable public owner;\n    uint public pool; // pool size, WHICH defaults to 0\n    uint public MINIMUM_AMOUNT = 10 finney; // MUST save at least 0.01 ether\n    address payable[] public entrants;\n    mapping (address => uint) public savings; // amount of each savings.\n    bool public isOpen;\n    uint public creationTime; // current blocktime stamp\n    address payable public winningAddress;\n    bool public contractPaused = false; //circuit breaker variable\n    // uint public interestGenerated;\n    // mapping (address => uint) public entryMap; // list the map of entrants.\n\n    // EVENTS\n   /**\n    * Emitted when a new pool is created.\n    */\n    event PoolCreated(address creator);\n\n   /**\n    * Emitted when a saver is added to the pool\n    * @param saver The new saver added\n    * @param deposit The amount they deposit\n    * @param total The total they are currently saving\n    * @param poolSize The size of the pool pot\n    */\n    event AddedEntry(address indexed saver, uint deposit, uint total, uint poolSize);\n\n   /**\n    * Emitted when an entrant withdraws from the pool\n    * @param saver The address of the saver who is withdrawing\n    * @param savings The amount that has been withdrawn\n    */\n    event Withdrawn(address indexed saver, uint savings);\n\n   /**\n    * Emitted when lockPool is called\n    * @param timeLocked When it was locked\n    * @param locker The caller that locked it\n    */\n    event PoolLocked(uint timeLocked, address locker);\n\n   /**\n    * Emitted when a winner is chosen.\n    * @param winner The reandomly selected winner\n    */\n    event ChosenWinner(address indexed winner);\n\n   /**\n    * Emitted when closePool is called.\n    * @param winnings The winner's lottery winning\n    */\n    event PoolClosed(uint winnings);\n\n    // MODIFIERS\n    modifier isOwner {\n        require(owner == msg.sender, \"Caller is not owner\");\n        _;\n    }\n\n    modifier poolOpen {\n        require(isOpen == true, \"Pool must be open\");\n        _;\n    }\n\n    modifier minAmount {\n       require(msg.value >= MINIMUM_AMOUNT, \"Must submit at least the minimum amount\");\n       _;\n    }\n\n    modifier requiredTimePassed {\n        require((block.timestamp - creationTime) > 4 weeks, \"4 weeks must have passed\");\n        _;\n    }\n\n    // If the contract is paused, stop the modified function\n    modifier checkIfPaused() {\n        require(contractPaused == false, \"Circuit breaker must be false\");\n        _;\n    }\n\n    // FUNCTIONS\n    constructor() public {\n        owner = msg.sender;\n        isOpen = true;\n        creationTime = block.timestamp;\n        emit PoolCreated(owner);\n    }\n\n   /**\n    * @notice This function adds new entrants to the current pool.\n    * An entrant can only join when the isOpen = true.\n    * @dev The first require statement means to only add this entrant to potential winners if\n    * their current balance 0.\n    */\n    function addToPool() public payable poolOpen minAmount checkIfPaused {\n        if (savings[msg.sender] == 0) entrants.push(msg.sender);\n        pool = pool + msg.value;\n        savings[msg.sender] = savings[msg.sender] + msg.value;\n        emit AddedEntry(msg.sender, msg.value, savings[msg.sender], pool);\n    }\n\n   /**\n    * @notice This function allows users to see how much is in their savings.\n    * @return The savings of the user\n    */\n    function viewDeposit() public view returns(uint) {\n        return(savings[msg.sender]);\n    }\n\n   /**\n    * @notice This function withdraws their savings from the current pool.\n    * @dev This function currently withdraws ALL of the user's savings balance.\n    */\n    function withdrawAll() public {\n        require(savings[msg.sender] > 0, \"Entrant has nothing to withdraw\");\n        require(isOpen == true, \"Pool not open\");\n        msg.sender.transfer(savings[msg.sender]);\n        savings[msg.sender] = 0;\n        emit Withdrawn(msg.sender, savings[msg.sender]);\n    }\n\n   /**\n    * @notice This function locks the pool 2 weeks after it is created.\n    * After pool is locked, the next two weeks will allow it to accrue interest.\n    * @dev For testing purposes, the require statement has been taken out.\n    */\n    function lockPool() public checkIfPaused {\n        //require((block.timestamp - creationTime) > 2 weeks, \"Two weeks must have passed\");\n        isOpen = false;\n        emit PoolLocked(block.timestamp, msg.sender);\n    }\n\n   /**\n    * @notice This function randomly chooses the winner from the current savers.\n    * It will make sure the current pool is locked.\n    * @return The winning address selected.\n    */\n    function chooseWinner() public checkIfPaused returns (address) {\n        require(isOpen == false, \"Pool must be locked before selecting winner\");\n        require(entrants.length >= 2, \"There must be 2 or more players in the current pool\");\n        uint randomNumber = selectRandom();\n        uint entrantsRandomIndex = randomNumber.mod(entrants.length);\n        winningAddress = entrants[entrantsRandomIndex];\n        emit ChosenWinner(winningAddress);\n        return winningAddress;\n    }\n\n   /**\n    * @notice This function selects a random number by returning the blockhash of the current block.number.\n    * @dev This would eventually be replaced with a random oracle generator e.g. Rhombus\n    * @return The random number returned to chooseWinner.\n    */\n    function selectRandom() internal view returns (uint256) {\n        return uint256(blockhash(block.number));\n    }\n\n   /**\n    * @notice This function closes the pool, simulating one month has passed.\n    * A winner should have been chosen and they had the interest transfered to them.\n    * 20 represents a 5% interest rate from the entire pool. Here it is hard coded, but would be where a call to\n    * a Compound contract would make sense.\n    * @dev Need to add the modifier requiredTimePassed to the end of the function header.\n    * Additionally, a new instance of the PrizedLinkedContract should be created to start up a new pool,\n    * yet keeping the current savers in the pool.\n    */\n    function closePool() public checkIfPaused {\n        require(winningAddress != address(0), \"Winner should be declared before closing pool\");\n        isOpen = false;\n        winningAddress.transfer(savings[winningAddress].add(pool.div(20)));\n        emit PoolClosed(pool.div(20));\n    }\n\n    // /**\n    // * @notice This function is the fallback function.\n    // */\n    // function() external {\n    //     revert(\"Fallback function called\");\n    // }\n\n    /**\n    * @notice This function is the circuit breaker function using a ternary.\n    */\n    function togglePause() public isOwner {\n        contractPaused = !contractPaused;\n    }\n}",
  "sourcePath": "/Users/brenfife/Desktop/the-doxa-project/contracts/PrizedLinkedContract.sol",
  "compiler": {
    "name": "solc",
    "version": "0.5.8+commit.23d335f2.Emscripten.clang"
  },
  "schemaVersion": "3.0.11",
  "updatedAt": "2019-08-01T04:33:50.327Z",
  "devdoc": {
    "author": "Brennan Fife",
    "details": "This is the barebones for a prize-linked lottery system. Eventually, this contract would look to add additional features, including: Adding compadability with Coinbase Wallet, using Compound Finance for lending + Dai, and Rhombus Network to provide us with uniformly random numbers.",
    "methods": {
      "addToPool()": {
        "details": "The first require statement means to only add this entrant to potential winners if their current balance 0."
      },
      "chooseWinner()": {
        "return": "The winning address selected."
      },
      "closePool()": {
        "details": "Need to add the modifier requiredTimePassed to the end of the function header. Additionally, a new instance of the PrizedLinkedContract should be created to start up a new pool, yet keeping the current savers in the pool."
      },
      "lockPool()": {
        "details": "For testing purposes, the require statement has been taken out."
      },
      "viewDeposit()": {
        "return": "The savings of the user"
      },
      "withdrawAll()": {
        "details": "This function currently withdraws ALL of the user's savings balance."
      }
    },
    "title": "The PrizedLinkedContract.sol contract for DOXA"
  },
  "userdoc": {
    "methods": {
      "addToPool()": {
        "notice": "This function adds new entrants to the current pool. An entrant can only join when the isOpen = true."
      },
      "chooseWinner()": {
        "notice": "This function randomly chooses the winner from the current savers. It will make sure the current pool is locked."
      },
      "closePool()": {
        "notice": "This function closes the pool, simulating one month has passed. A winner should have been chosen and they had the interest transfered to them. 20 represents a 5% interest rate from the entire pool. Here it is hard coded, but would be where a call to a Compound contract would make sense."
      },
      "lockPool()": {
        "notice": "This function locks the pool 2 weeks after it is created. After pool is locked, the next two weeks will allow it to accrue interest."
      },
      "togglePause()": {
        "notice": "This function is the circuit breaker function using a ternary."
      },
      "viewDeposit()": {
        "notice": "This function allows users to see how much is in their savings."
      },
      "withdrawAll()": {
        "notice": "This function withdraws their savings from the current pool."
      }
    },
    "notice": "PrizedLinkedContract is the main contract for our system. Users will be able to save money every month, with each month raffling off the interest generated from the collective pool of savers."
  }
}