{
  "contractName": "PrizedLinkedContract",
  "abi": [
    {
      "constant": true,
      "inputs": [],
      "name": "owner",
      "outputs": [
        {
          "name": "",
          "type": "address"
        }
      ],
      "payable": false,
      "stateMutability": "view",
      "type": "function"
    },
    {
      "constant": true,
      "inputs": [
        {
          "name": "",
          "type": "uint256"
        }
      ],
      "name": "entrants",
      "outputs": [
        {
          "name": "",
          "type": "address"
        }
      ],
      "payable": false,
      "stateMutability": "view",
      "type": "function"
    },
    {
      "inputs": [],
      "payable": false,
      "stateMutability": "nonpayable",
      "type": "constructor"
    },
    {
      "anonymous": false,
      "inputs": [],
      "name": "poolCreated",
      "type": "event"
    },
    {
      "anonymous": false,
      "inputs": [
        {
          "indexed": true,
          "name": "saver",
          "type": "address"
        },
        {
          "indexed": false,
          "name": "deposit",
          "type": "uint256"
        },
        {
          "indexed": false,
          "name": "total",
          "type": "uint256"
        }
      ],
      "name": "addedEntry",
      "type": "event"
    },
    {
      "anonymous": false,
      "inputs": [
        {
          "indexed": true,
          "name": "saver",
          "type": "address"
        },
        {
          "indexed": false,
          "name": "savings",
          "type": "uint256"
        }
      ],
      "name": "withdraw",
      "type": "event"
    },
    {
      "anonymous": false,
      "inputs": [],
      "name": "nextPoolPhase",
      "type": "event"
    },
    {
      "anonymous": false,
      "inputs": [],
      "name": "logEndSale",
      "type": "event"
    },
    {
      "constant": false,
      "inputs": [],
      "name": "addToPool",
      "outputs": [],
      "payable": true,
      "stateMutability": "payable",
      "type": "function"
    },
    {
      "constant": true,
      "inputs": [],
      "name": "viewDeposit",
      "outputs": [
        {
          "name": "",
          "type": "uint256"
        }
      ],
      "payable": false,
      "stateMutability": "view",
      "type": "function"
    },
    {
      "constant": false,
      "inputs": [],
      "name": "chooseWinner",
      "outputs": [
        {
          "name": "",
          "type": "address"
        }
      ],
      "payable": false,
      "stateMutability": "nonpayable",
      "type": "function"
    },
    {
      "constant": false,
      "inputs": [],
      "name": "closePool",
      "outputs": [],
      "payable": false,
      "stateMutability": "nonpayable",
      "type": "function"
    },
    {
      "constant": false,
      "inputs": [],
      "name": "endPool",
      "outputs": [],
      "payable": false,
      "stateMutability": "nonpayable",
      "type": "function"
    }
  ],
  "bytecode": "0x6080604052662386f26fc1000060025534801561001b57600080fd5b50336000806101000a81548173ffffffffffffffffffffffffffffffffffffffff021916908373ffffffffffffffffffffffffffffffffffffffff1602179055506001600660006101000a81548160ff02191690831515021790555042600781905550610bd68061008d6000396000f3fe6080604052600436106100705760003560e01c80638da5cb5b1161004e5780638da5cb5b146100ce578063c07401f014610125578063cd38aa871461012f578063e7b4e5ab1461018657610070565b80632832b757146100755780632d42cf7d146100a057806366805de5146100b7575b600080fd5b34801561008157600080fd5b5061008a610201565b6040518082815260200191505060405180910390f35b3480156100ac57600080fd5b506100b5610248565b005b3480156100c357600080fd5b506100cc61041b565b005b3480156100da57600080fd5b506100e36104b4565b604051808273ffffffffffffffffffffffffffffffffffffffff1673ffffffffffffffffffffffffffffffffffffffff16815260200191505060405180910390f35b61012d6104d9565b005b34801561013b57600080fd5b50610144610793565b604051808273ffffffffffffffffffffffffffffffffffffffff1673ffffffffffffffffffffffffffffffffffffffff16815260200191505060405180910390f35b34801561019257600080fd5b506101bf600480360360208110156101a957600080fd5b81019080803590602001909291905050506108a6565b604051808273ffffffffffffffffffffffffffffffffffffffff1673ffffffffffffffffffffffffffffffffffffffff16815260200191505060405180910390f35b6000600460003373ffffffffffffffffffffffffffffffffffffffff1673ffffffffffffffffffffffffffffffffffffffff16815260200190815260200160002054905090565b6224ea006007544203116102c4576040517f08c379a000000000000000000000000000000000000000000000000000000000815260040180806020018281038252601a8152602001807f4f6e65206d6f6e7468206d75737420686176652070617373656400000000000081525060200191505060405180910390fd5b600073ffffffffffffffffffffffffffffffffffffffff16600960009054906101000a900473ffffffffffffffffffffffffffffffffffffffff1673ffffffffffffffffffffffffffffffffffffffff16141561036c576040517f08c379a000000000000000000000000000000000000000000000000000000000815260040180806020018281038252602d815260200180610b7e602d913960400191505060405180910390fd5b6000600660006101000a81548160ff021916908315150217905550600960009054906101000a900473ffffffffffffffffffffffffffffffffffffffff1673ffffffffffffffffffffffffffffffffffffffff166108fc6103ed6103dc60146001546108e290919063ffffffff16565b60015461097190919063ffffffff16565b9081150290604051600060405180830381858888f19350505050158015610418573d6000803e3d6000fd5b50565b62127500600754420311610497576040517f08c379a000000000000000000000000000000000000000000000000000000000815260040180806020018281038252601a8152602001807f54776f207765656b73206d75737420686176652070617373656400000000000081525060200191505060405180910390fd5b6000600660006101000a81548160ff021916908315150217905550565b6000809054906101000a900473ffffffffffffffffffffffffffffffffffffffff1681565b60011515600660009054906101000a900460ff16151514610562576040517f08c379a00000000000000000000000000000000000000000000000000000000081526004018080602001828103825260118152602001807f506f6f6c206d757374206265206f70656e00000000000000000000000000000081525060200191505060405180910390fd5b6002543410156105bd576040517f08c379a0000000000000000000000000000000000000000000000000000000008152600401808060200182810382526027815260200180610b576027913960400191505060405180910390fd5b6000600460003373ffffffffffffffffffffffffffffffffffffffff1673ffffffffffffffffffffffffffffffffffffffff16815260200190815260200160002054141561066c5760033390806001815401808255809150509060018203906000526020600020016000909192909190916101000a81548173ffffffffffffffffffffffffffffffffffffffff021916908373ffffffffffffffffffffffffffffffffffffffff160217905550505b346001540160018190555034600460003373ffffffffffffffffffffffffffffffffffffffff1673ffffffffffffffffffffffffffffffffffffffff1681526020019081526020016000205401600460003373ffffffffffffffffffffffffffffffffffffffff1673ffffffffffffffffffffffffffffffffffffffff168152602001908152602001600020819055503373ffffffffffffffffffffffffffffffffffffffff167f8ccfb5d9a9c748312474f472a40783aa334f34c33360c1bfa830836565a47a0b34600460003373ffffffffffffffffffffffffffffffffffffffff1673ffffffffffffffffffffffffffffffffffffffff16815260200190815260200160002054604051808381526020018281526020019250505060405180910390a2565b6000801515600660009054906101000a900460ff16151514610800576040517f08c379a000000000000000000000000000000000000000000000000000000000815260040180806020018281038252602b815260200180610b2c602b913960400191505060405180910390fd5b600061080a6109f9565b9050600061082660038054905083610a1890919063ffffffff16565b90506003818154811061083557fe5b9060005260206000200160009054906101000a900473ffffffffffffffffffffffffffffffffffffffff16600960006101000a81548173ffffffffffffffffffffffffffffffffffffffff021916908373ffffffffffffffffffffffffffffffffffffffff16021790559250505090565b600381815481106108b357fe5b906000526020600020016000915054906101000a900473ffffffffffffffffffffffffffffffffffffffff1681565b6000808211610959576040517f08c379a000000000000000000000000000000000000000000000000000000000815260040180806020018281038252601a8152602001807f536166654d6174683a206469766973696f6e206279207a65726f00000000000081525060200191505060405180910390fd5b600082848161096457fe5b0490508091505092915050565b6000808284019050838110156109ef576040517f08c379a000000000000000000000000000000000000000000000000000000000815260040180806020018281038252601b8152602001807f536166654d6174683a206164646974696f6e206f766572666c6f77000000000081525060200191505060405180910390fd5b8091505092915050565b6000610a0f600143610aa290919063ffffffff16565b4060001c905090565b600080821415610a90576040517f08c379a00000000000000000000000000000000000000000000000000000000081526004018080602001828103825260188152602001807f536166654d6174683a206d6f64756c6f206279207a65726f000000000000000081525060200191505060405180910390fd5b818381610a9957fe5b06905092915050565b600082821115610b1a576040517f08c379a000000000000000000000000000000000000000000000000000000000815260040180806020018281038252601e8152602001807f536166654d6174683a207375627472616374696f6e206f766572666c6f77000081525060200191505060405180910390fd5b60008284039050809150509291505056fe506f6f6c206d75737420626520636c6f736564206265666f72652073656c656374696e672077696e6e65724d757374207375626d6974206174206c6561737420746865206d696e696d756d20616d6f756e7457696e6e65722073686f756c64206265206465636c61726564206265666f726520636c6f73696e6720706f6f6ca165627a7a72305820beebb1e8751eb375fbfabb2a74f1a22641bef0a19f47bf6ca9b327528869ef1c0029",
  "source": "pragma solidity ^0.5.0;\n\nimport \"./SafeMath.sol\";\nimport \"./RandomNumberGenerator.sol\";\n\n/**\n * @title The PrizedLinkedContract.sol contract for DOXA\n * @author Brennan Fife\n * @notice ...\n * @dev ...\n */\ncontract PrizedLinkedContract {\n    using SafeMath for uint;\n    address payable public owner;\n    uint pool; // pool size, WHICH defaults to 0\n    uint MIN_TICKET_PRICE = 10 finney; // MUST save at least 0.01 ether\n    address payable[] public entrants;\n    mapping (address => uint) savings; // amount of each savings\n    mapping (address => uint) entryMap; // list the map of entrants. Not safe...// struct? for entrant's address and savings amount... id number\n    bool isOpen;\n    uint creationTime; // current blocktime stamp\n    uint interestGenerated;\n    address payable winningAddress;\n\n    // EVENTS\n    event poolCreated(); // Emitted when a new pool is created. Should it contain the pool address?\n    event addedEntry(address indexed saver, uint deposit, uint total); // Emitted when a saver is added to the pool\n    event withdraw(address indexed saver, uint savings); // Emitted when a saver withdraws\n    event nextPoolPhase(); // or...\n    event logEndSale();\n\n\n\n    // MODIFIERS\n    modifier isOwner {\n        require(owner == msg.sender, \"Caller is not owner\");\n        _;\n    }\n\n    modifier poolOpen {\n        require(isOpen == true, \"Pool must be open\");\n        _;\n    }\n\n    modifier minAmount {\n       require(msg.value >= MIN_TICKET_PRICE, \"Must submit at least the minimum amount\");\n       _;\n    }\n\n    modifier requiredTimePassed {\n        require((block.timestamp - creationTime) > 4 weeks, \"One month must have passed\"); //4 weeks to simulate a month has passed\n        _;\n    }\n\n\n\n    // CONSTRUCTOR\n    constructor() public {\n        owner = msg.sender;\n        isOpen = true;\n        creationTime = block.timestamp; // 'now' is changing every time a new block is created. Here it makes creationTime static to that current time.\n    }\n\n\n    // FUNCTIONS\n    // When a new saver joins the pool, saver can add to deposit during isOpen\n    function addToPool() public payable poolOpen() minAmount { // SHOULD THIS BE public as anyone should be able to call it\n        if (savings[msg.sender] == 0) entrants.push(msg.sender); //Only add to potential winners if current balance 0\n        pool = pool + msg.value;\n        savings[msg.sender] = savings[msg.sender] + msg.value;\n        emit addedEntry(msg.sender, msg.value, savings[msg.sender]);\n    }\n\n    // function removeFromPool() public payable returns (address) {}\n\n    function viewDeposit() public view returns(uint) {\n        return(savings[msg.sender]);\n    }\n\n    // function poolSize() public view returns(uint) {}\n\n    function selectRandom() internal view returns (uint256) { // WOULD EVENTUALLY BE REPLACED BY RHOMBUS\n        return uint256(blockhash(block.number.sub(1))); // blockhash is good enough for demo purposes.\n    }\n\n    function chooseWinner() public returns (address) {\n        require(isOpen == false, \"Pool must be closed before selecting winner\");\n        uint randomNumber = selectRandom();\n        uint entrantsRandomIndex = randomNumber.mod(entrants.length); //SafeMath\n        return winningAddress = entrants[entrantsRandomIndex];\n    }\n\n    function closePool() public { // this should happen every 2 weeks\n        require((block.timestamp - creationTime) > 2 weeks, \"Two weeks must have passed\");\n        isOpen = false;\n    }\n\n    function endPool() public requiredTimePassed {\n        require(winningAddress != address(0), \"Winner should be declared before closing pool\"); // Requires chooseWinner has been called.\n        isOpen = false;\n        winningAddress.transfer(pool.add(pool.div(20))); // 20 represents a 5% interest rate (hard coded)\n        // emit LogEndPool();\n    }\n}",
  "sourcePath": "/Users/brenfife/Desktop/the-doxa-project/contracts/PrizedLinkedContract.sol",
  "compiler": {
    "name": "solc",
    "version": "0.5.8+commit.23d335f2.Emscripten.clang"
  },
  "schemaVersion": "3.0.11",
  "updatedAt": "2019-07-22T18:41:23.566Z",
  "devdoc": {
    "author": "Brennan Fife",
    "details": "...",
    "methods": {},
    "title": "The PrizedLinkedContract.sol contract for DOXA"
  },
  "userdoc": {
    "methods": {},
    "notice": "..."
  }
}